:020000040800F2
:1000000000500020C15A0008115A0008135A000875
:10001000155A0008175A0008195A00080000000075
:100020000000000000000000000000001B5A000853
:100030001D5A0008000000001F5A0008215A00083D
:10004000095B0008095B0008095B0008095B000800
:10005000095B0008095B0008095B0008095B0008F0
:10006000095B0008095B0008095B0008095B0008E0
:10007000095B0008095B0008095B0008095B0008D0
:10008000095B0008095B0008095B0008095B0008C0
:10009000295A0008095B0008095B0008095B000891
:1000A000095B0008095B0008095B0008095B0008A0
:1000B000095B0008095B0008095B0008095B000890
:1000C000095B0008095B0008095B0008095B000880
:1000D000095B0008095B0008095B0008095B000870
:1000E000095B0008095B0008095B000800000000CC
:1000F0000000000000000000000000000000000000
:0C01000000000000000000005FF808F1A3
:10010C0010B5054C237833B9044B13B10448AFF345
:10011C0000800123237010BD80010020000000002E
:10012C00085D000808B5034B1BB103490348AFF346
:10013C00008008BD0000000084010020085D00085C
:10014C0010B504460E4B18784FF47A73B3FBF0F3EA
:10015C000C4A1068B0FBF3F000F0A2F868B90F2C51
:10016C0001D901200AE0002221464FF0FF3000F0B7
:10017C0055F8034B5C60002000E0012010BD00BF6F
:10018C00000000201801002008B5074A136843F04E
:10019C0010031360032000F02FF80020FFF7D0FFAE
:1001AC0005F0BAFB002008BD00200240034A11688C
:1001BC00034B1B780B441360704700BF08020020F0
:1001CC0000000020014B1868704700BF0802002097
:1001DC0038B50446FFF7F6FF0546B4F1FF3F02D0F1
:1001EC00044B1B781C44FFF7EDFF401BA042FAD3D5
:1001FC0038BD00BF00000020074AD36823F4E06339
:10020C001B041B0C000200F4E060034343F0BF63CB
:10021C0043F40033D360704700ED00E030B4174B6B
:10022C00DB68C3F30223C3F10704042C28BF0424A6
:10023C001D1D062D18D9033B4FF0FF3505FA04F4AC
:10024C0021EA0401994005FA03F322EA0303194356
:10025C0000280BDB0901C9B200F1604000F56140D8
:10026C0080F8001330BC70470023E5E700F00F0066
:10027C000901C9B2024B1954F4E700BF00ED00E0CC
:10028C0014ED00E0002807DB00F01F0240090123F9
:10029C009340024A42F82030704700BF00E100E072
:1002AC000138B0F1807F0AD2064B5860064AF02123
:1002BC0082F823100020986007221A6070470120F2
:1002CC00704700BF10E000E000ED00E0F0B482B039
:1002DC0000252C46A3E07F4FBB4210D007D97E4FA0
:1002EC00BB420CD007F58037BB4208D013E0A7F512
:1002FC008017BB4203D007F57027BB4207D18B6830
:10030C00002B58D0012B51D04261082503E0A7F5F2
:10031C008017BB42F3D0FF2E4FD88446FF2E4FD808
:10032C00A200DCF800300F27974023EA070305FAF8
:10033C0002F21343CCF800304B6813F0805F6DD0A1
:10034C00664B9A6942F001029A619B6903F00103C2
:10035C000193019BA208971C614B53F8273004F0C2
:10036C000307BF004FF00F0C0CFA07FC23EA0C0C30
:10037C005C4B98422AD003F58063984200F08A8047
:10038C0003F58063984200F0878003F58063984200
:10039C001AD004231BE0CD68BDE7CD680435BAE75D
:1003AC00CD680835B7E7CD680C35B4E70261082590
:1003BC00B1E70025AFE70425ADE700F1040CADE78C
:1003CC00A4F108029200ACE7032300E00023BB4039
:1003DC0043EA0C030232424F47F822304B6813F4C5
:1003EC00803F5BD0404A1368334313604B6813F46F
:1003FC00003F59D03C4A5368334353604B6813F465
:10040C00801F57D0384A9368334393604B6813F47A
:10041C00001F55D0344AD3681E43D66001340B6894
:10042C0033FA04F252D00122A24003EA020632EA65
:10043C000303F3D14B68122B3FF64DAF122B3FF653
:10044C006AAF01A757F823F00B030008A3030008B9
:10045C00AD030008BF0300082303000823030008B2
:10046C0023030008230300082303000823030008C8
:10047C0023030008230300082303000823030008B8
:10048C00230300082303000823030008A703000824
:10049C00B303000801239AE7022398E7124A136872
:1004AC0023EA06031360A1E70F4A536823EA060305
:1004BC005360A3E70C4A936823EA06039360A5E70D
:1004CC00094AD36823EA0606D660A7E702B0F0BC57
:1004DC00704700BF000022100000311000100240D5
:1004EC0000000140000801400004014083681942EB
:1004FC0001D001207047002070470AB1016170479C
:10050C0009040161704770B512F4804F43D0046840
:10051C00B4F850309BB20D7803EBC503023304EBF7
:10052C004303B3F80044C4F309048B69A34228D3F2
:10053C001B1B8B618B697BB9066836F825309BB227
:10054C0023F4804323F0700383F4005343F40043FB
:10055C0043F0800326F8253012F0400F0ED00268CD
:10056C000D7832F825309BB223F4E04323F070036E
:10057C0043F4004343F0C00322F8253024B920464D
:10058C0070BD00238B61D5E723460A894969006851
:10059C0002F0EAFDF3E70468B4F850309BB20D7832
:1005AC0003EBC503063304EB4303B3F80044C4F375
:1005BC0009048B69A3422ED31B1B8B618B697BB9FE
:1005CC00066836F825309BB223F4804323F0700381
:1005DC0083F4005343F4004343F0800326F82530A2
:1005EC0012F0400F0ED102680D7832F825309BB214
:1005FC0023F4E04323F0700343F4004343F0C003BF
:10060C0022F82530002CBAD023464A894969006863
:10061C0002F0AAFDB3E700238B61CFE7F0B587B0FA
:10062C0000287FD0044690F8A932DBB1032384F86C
:10063C00A932206801F0FEFD254655F8107B6E4668
:10064C000FCD0FC62B683360231D0ECB384601F03F
:10065C00E1FD054658B1022384F8A932012528464C
:10066C0007B0F0BD80F8A83205F0B6F9DEE700213E
:10067C00206801F0E9FD2B4619E05A1C02EB8201BF
:10068C0004EBC1010120487002EB820104F8313007
:10069C0003EB830104EBC101CB8602EB820604EB76
:1006AC00C6060020F0708863C8630864D3B2616822
:1006BC008B42E2D316E005EB850304EBC303002267
:1006CC0083F8692183F8685183F86B21C3F878218A
:1006DC00C3F87C2105EB850304EBC303C3F880212D
:1006EC000135EDB2A942E6D8254655F8107B6E4689
:1006FC000FCD0FC62B683360231D0ECB384601F08F
:10070C00A5FD054620B1022384F8A9320125A6E7F0
:10071C00002384F82430012384F8A932206802F0E5
:10072C00AFF89CE701259AE738B590F8A832012B71
:10073C0011D00446012580F8A852006801F071FD23
:10074C002946204600F085FE206802F097F800202C
:10075C0084F8A80238BD0220FCE770B505460C46AB
:10076C00164612F0400F00F00D810268B2F85030BE
:10077C009BB2097803EBC103023302EB4303B3F8DA
:10078C000024C2F30902A369934252D99B1AA361B4
:10079C00A369002B6AD16378002B4DD12B68B3F879
:1007AC00502092B2134403EB0111B1F804349BB204
:1007BC0023F4F8439BB2A1F80434B1F804346FEA83
:1007CC0043436FEA53439BB2A1F804342B6862781D
:1007DC00002A3ED1B3F8502092B21344227803EB96
:1007EC000213B3F80C2492B222F4F84292B2A3F89A
:1007FC000C24B3F80C246FEA42426FEA524292B2D4
:10080C00A3F80C242178284602F08FFD16F4804FB3
:10081C0041D02A68217832F821309BB223F4E0438E
:10082C0023F0700343F4404343F0800322F821305B
:10083C0031E00023A361ABE7012BC7D12B68B3F8E0
:10084C00502092B2134403EB01110023A1F804349D
:10085C00BCE7012AD6D1B3F8502092B213442278C7
:10086C0003EB02130022A3F80C24CBE716F4804F01
:10087C000DD0286830F821309BB223F4E04323F0EC
:10088C00700343F4404343F0800320F8213094F884
:10089C002430012B12D02A68217832F821309BB2F7
:1008AC0023F4E04323F0400383F0300343F400438C
:1008BC0043F0800322F82130002070BD636913449B
:1008CC006361E3691344E361216A236999421FD38D
:1008DC00C91A21626278002A3FD12A68B2F85010F6
:1008EC0089B20A44217802EB0112EBB9B2F8041474
:1008FC0089B221F4F84189B2A2F80414B2F80414B4
:10090C006FEA41416FEA514189B2A2F8041426E022
:10091C0021B9002384F824301346DBE7002384F844
:10092C00243023620B46D5E73E2B09D8590813F027
:10093C00010F00D00131890289B2A2F804140EE033
:10094C00590913F01F0F00D101396FEAC1616FEA29
:10095C00514189B2A2F8041401E0012A06D09BB2DD
:10096C0022896169286801F093FF94E72A68B2F83C
:10097C00501089B20A44217802EB011299B2A2F804
:10098C000414ECE70268B2F850309BB2097803EB20
:10099C00C103063302EB4303B3F80024C2F309028C
:1009AC00A369934253D39B1AA361A369002B6BD108
:1009BC006378002B4ED12B68B3F8502092B21344BD
:1009CC0003EB0111B1F804349BB223F4F8439BB24E
:1009DC00A1F80434B1F804346FEA43436FEA53438B
:1009EC009BB2A1F804342B686278002A3FD1B3F88B
:1009FC00502092B21344227803EB0213B3F80C2468
:100A0C0092B222F4F84292B2A3F80C24B3F80C245C
:100A1C006FEA42426FEA524292B2A3F80C24217858
:100A2C00284602F082FC16F4804F7FF434AF2A681B
:100A3C00217832F821309BB223F4E04323F0700389
:100A4C0043F4404343F0800322F8213023E7002392
:100A5C00A361AAE7012BC6D12B68B3F8502092B240
:100A6C00134403EB01110023A1F80434BBE7012A62
:100A7C00D5D1B3F8502092B21344227803EB021371
:100A8C000022A3F80C24CAE716F4804F0DD1286875
:100A9C0030F821309BB223F4E04323F0700343F48D
:100AAC00404343F0800320F8213094F82430012B8C
:100ABC007FF4F1AE636913446361E3691344E3614A
:100ACC00216A236999421FD3C91A21622A68617865
:100ADC0000293ED1B2F8501089B20A44217802EBB9
:100AEC000112EBB9B2F80C1489B221F4F84189B2B5
:100AFC00A2F80C14B2F80C146FEA41416FEA5141A0
:100B0C0089B2A2F80C1426E021B9002384F8243011
:100B1C001346DBE70023236284F824300B46D5E729
:100B2C003E2B09D8590813F0010F00D0013189026E
:100B3C0089B2A2F80C140EE0590913F01F0F00D162
:100B4C0001396FEAC1616FEA514189B2A2F80C1404
:100B5C0001E0012906D09BB262896169286801F025
:100B6C0097FE98E6B2F8501089B20A44217802EB4D
:100B7C00011299B2A2F80C14EDE72DE9F0410546EB
:100B8C002868B0F8443013F4004F00F01382B0F82A
:100B9C004440A3B214F00F0440F0D88013F0100FAF
:100BAC0061D003889AB213F4006F40F0938012F472
:100BBC00004FE5D0038823F070031B051B0D43F099
:100BCC00800303802868B0F850309BB295F86821F8
:100BDC0003EBC203063300EB4303B3F80034C3F357
:100BEC000903C5F884318BB1D5F87C1171B1B5F816
:100BFC006E2102F0B9FAD5F88421D5F87C31134472
:100C0C00C5F87C310021284602F074FB2B681A8849
:100C1C0012F4006FB4D1B3F8502092B21344D5F84B
:100C2C007821002A79D1B3F80C2492B222F4F8423C
:100C3C0092B2A3F80C24B3F80C246FEA42426FEA88
:100C4C00524292B2A3F80C242A6813889BB223F464
:100C5C00804323F0700383F4405343F4004343F088
:100C6C00800313808CE703889BB223F4E14323F0C9
:100C7C0070036FEA43436FEA53439BB203802A68C5
:100C8C00B2F850309BB295F8281003EBC103023335
:100C9C0002EB4303B3F80034C3F309036B64EA6B50
:100CAC001344EB630021284602F03FFB95F82430F7
:100CBC00002B3FF465AF2B6C002B7FF461AF95F8E4
:100CCC0024302A6843F08003A2F84C30002385F8C6
:100CDC00243055E7B0F850309BB295F8682103EBFF
:100CEC00C203063300EB4303B3F80034C3F3090328
:100CFC00C5F88431B5F86E2105F52C7102F034FA83
:100D0C002A68138823F070031B051B0D43F0800326
:100D1C001380284602F0DCFA32E73E2A09D8510843
:100D2C0012F0010F00D001318A0292B2A3F80C2408
:100D3C008AE7510912F01F0F00D101396FEAC16225
:100D4C006FEA524292B2A3F80C247DE730F82430BB
:100D5C009EB213F4004F53D116F0800F3FF410AF36
:100D6C00621C02EB820105EBC101286830F82430CB
:100D7C009BB223F4E14323F070036FEA43436FEA21
:100D8C0053439BB220F82430CB78032B07D033B1DC
:100D9C00022B40F00A8116F4807F40F0068128680F
:100DAC00B0F850309BB2621C02EB820215F8322074
:100DBC0003EBC203023300EB4303B3F80034C3F379
:100DCC00090304EB840205EBC202126C9A4240F256
:100DDC00D88004EB840605EBC606D21A326404EB09
:100DEC00840205EBC202126C002A40F0D18001345F
:100DFC0004EB840415F83410284602F096FABFE68A
:100E0C0030F8243023F070031B051B0D43F08003D6
:100E1C0020F8243004EB8401C90001F5B47105EB12
:100E2C00010804EB840305EBC30393F87431002B26
:100E3C0042D12868B0F850309BB204EB840205EB29
:100E4C00C20292F8682103EBC203063300EB4303A2
:100E5C00B3F80074C7F3090717BB04EB840305EB65
:100E6C00C303D3F884213A44C3F88421D3F87C21FA
:100E7C003A44C3F87C21D3F880313BB104EB8403B2
:100E8C0005EBC303D3F878319F4275D204EB84038E
:100E9C0005EBC30393F86811284602F02BFA5BE7C5
:100EAC0004EB840105EBC1013B46B1F86E21D1F88E
:100EBC007C1102F059F9D0E704EB840305EBC30372
:100ECC0093F86B31022B35D0296804EB840205EBC7
:100EDC00C20292F8680131F820309BB223F4E0434F
:100EEC0023F0700343F4004343F0C00321F8203097
:100EFC00286892F8682130F8223013F4804F20D003
:100F0C00B0F850309BB203EBC203023300EB430347
:100F1C00B3F80074C7F30907002F9ED004EB8401CB
:100F2C0005EBC1013B46B1F87021D1F87C1102F000
:100F3C001BF992E7324641462846FFF7E4FA07468A
:100F4C008BE7B0F850309BB203EBC203063300EBD7
:100F5C004303B3F80074C7F30907002F3FF47DAFC8
:100F6C0004EB840105EBC1013B46B1F87221D1F8C9
:100F7C007C1102F0F9F870E74146286801F09BFCFF
:100F8C00EAE604EB840205EBC2020026166426E7AF
:100F9C0004EB840205EBC202D66B1E44D663546C80
:100FAC002344536401F087FCEAE532462846FFF7F8
:100FBC00D4FBE5E50020BDE8F08190F8A832012BC8
:100FCC000DD010B50446012380F8A83280F8241007
:100FDC00006801F04DFC002084F8A80210BD02202E
:100FEC00704710B584B00446006801F04BFC10F457
:100FFC00004F32D1206801F045FC10F4806F30D1E5
:10100C00206801F03FFC10F4804F08D02268B2F841
:10101C0044309BB223F480439BB2A2F84430206846
:10102C0001F030FC10F4005F08D02268B2F84430B4
:10103C009BB223F400539BB2A2F84430206801F019
:10104C0021FC10F4805F1DD1206801F01BFC10F412
:10105C00006F00F08B8000233DE02046FFF78DFDF4
:10106C00C8E72268B2F844309BB223F480639BB289
:10107C00A2F84430204602F080F900212046FFF708
:10108C009CFFBDE72268B2F840309BB223F004030A
:10109C009BB2A2F840302268B2F840309BB223F0E9
:1010AC0008039BB2A2F84030204602F0A1F9226856
:1010BC00B2F844309BB223F480539BB2A2F8443074
:1010CC00C2E7226832F8231004AA02EB430222F88A
:1010DC00101C0133DBB2072BF3D92268B2F8403075
:1010EC009BB243F00103A2F840302268B2F84030C2
:1010FC009BB223F001039BB2A2F840302368B3F8F3
:10110C00442012F4806FF9D0B3F8442092B222F448
:10111C00806292B2A3F84420002309E0226804A95B
:10112C0001EB430131F8101C22F823100133DBB220
:10113C00072BF3D92268B2F840309BB243F0080376
:10114C00A2F840302268B2F844309BB223F400631A
:10115C009BB2A2F844302268B2F840309BB243F004
:10116C000403A2F84030204602F028F9206801F070
:10117C0089FB10F4007F10D1206801F083FB10F480
:10118C00807F08D02268B2F844309BB223F480737D
:10119C009BB2A2F8443004B010BD2268B2F84430BF
:1011AC009BB223F400739BB2A2F84430204602F0A9
:1011BC00D6F8E1E770B505460C4611F0800F26D144
:1011CC0001F0070000EB8001C90001F5B476A91904
:1011DC0000EB800005EBC000002680F8696104F08C
:1011EC0007040C700A61CB704A7802B1CC81022BD7
:1011FC0017D095F8A832012B16D0012385F8A83208
:10120C00286801F036F8002085F8A80270BD01F0BE
:10121C000700013000EB800105EBC10101264E7087
:10122C00DDE700230B71E4E70220EFE710B504467D
:10123C000B4611F0800F1FD101F0070202EB820167
:10124C00C90001F5B471014402EB820200EBC20249
:10125C00002082F8690103F007030B7094F8A832A0
:10126C00012B13D0012384F8A832206801F0A0F9D7
:10127C00002084F8A80210BD01F00702013202EB35
:10128C00820100EBC10101204870E4E70220F2E783
:10129C0038B501F0070404EB8401C90001F5B47101
:1012AC00014404EB840500EBC505C5F87C21C5F8A9
:1012BC0080310023C5F8843185F8693185F868419F
:1012CC0024B9006801F0F7FA002038BD006801F07D
:1012DC00F2FAF9E701F0070101EB810100EBC10122
:1012EC00D1F88401704770B501F007056C1C04EB54
:1012FC00840100EBC10105EB850600EBC606F26329
:10130C003364012286F84C20B364002373644A7062
:10131C0004EB840400F8345025B9006801F0CBFAD2
:10132C00002070BD006801F0C6FAF9E738B501F08D
:10133C0007054268954231D804460B4611F0800FE0
:10134C001ED101EB8101C90001F5B471014403EB1D
:10135C00830300EBC303002283F8692101238B7004
:10136C000D7094F8A832012B1AD0012384F8A832FE
:10137C00206801F007FA5DB1002084F8A80238BD9E
:10138C006B1C03EB830100EBC10101224A70E5E702
:10139C0004F52C71206801F079FAEDE70120EEE7F5
:1013AC000220ECE70B4601F00F014268914230D865
:1013BC0010B5044613F0800F21D103F0070202EBA5
:1013CC008201C90001F5B471014402EB820200EB09
:1013DC00C202002082F8690100228A7003F0070320
:1013EC000B7094F8A832012B15D0012384F8A83285
:1013FC00206801F0ECF9002084F8A80210BD03F07D
:10140C000702013202EB820100EBC101012048709E
:10141C00E2E7012070470220F0E711F0800F0BD0BB
:10142C0001F00701013101EB810100EBC10152B95F
:10143C000A73CB800020704701EB8101C90001F5D4
:10144C00B4710144F3E701220A730B811B0C4B812D
:10145C00F0E7704782B0084B1B68084AA2FB0323D5
:10146C005B0A00FB03F3019300BF019B5A1E019220
:10147C00002BF9D102B0704718010020D34D621037
:10148C00002800F0F18170B582B00446036813F0B7
:10149C00010F2CD0AA4B5B6803F00C03042B1DD05E
:1014AC00A74B5B6803F00C03082B12D06368B3F5F1
:1014BC00803F41D0002B55D103F1804303F5043319
:1014CC001A6822F480321A601A6822F480221A6098
:1014DC0037E09B4B5B6813F4803FE7D0984B1B685D
:1014EC0013F4003F03D06368002B00F0BF81236826
:1014FC0013F0020F75D0924B5B6813F00C0F5FD09A
:10150C008F4B5B6803F00C03082B54D02369002B22
:10151C0000F089808B4B01221A60FEF753FE0546C2
:10152C00874B1B6813F0020F74D1FEF74BFE401B68
:10153C000228F5D903209EE1814A136843F48033D5
:10154C001360636843B3FEF73DFE05467C4B1B6896
:10155C0013F4003FCBD1FEF735FE401B6428F5D9C0
:10156C00032088E1B3F5A02F09D0754B1A6822F43B
:10157C0080321A601A6822F480221A60E1E703F1C3
:10158C008043A3F53C331A6842F480221A601A682F
:10159C0042F480321A60D4E7FEF714FE0546684B1D
:1015AC001B6813F4003FA2D0FEF70CFE401B64280E
:1015BC00F5D903205FE1624B5B6813F4803FA5D142
:1015CC005F4B1B6813F0020F03D02369012B40F013
:1015DC004F815B4A136823F0F803616943EAC10346
:1015EC001360236813F0080F32D0A369002B45D089
:1015FC00554B01221A60FEF7E5FD0546504B5B6A20
:10160C0013F0020F21D1FEF7DDFD401B0228F5D9A6
:10161C00032030E14A4A136823F0F803616943EA76
:10162C00C1031360DDE7474B00221A60FEF7CAFDC9
:10163C000546434B1B6813F0020FD2D0FEF7C2FDD8
:10164C00401B0228F5D9032015E10120FFF702FF0A
:10165C00236813F0040F00F09780394BDB6913F00B
:10166C00805F1DD1364BDA6942F08052DA61DB695A
:10167C0003F080530193019B012512E0324B0022B1
:10168C001A60FEF79FFD05462D4B5B6A13F0020FA7
:10169C00DED0FEF797FD401B0228F5D90320EAE0C7
:1016AC0000252A4B1B6813F4807F11D0E368012BB3
:1016BC0022D0002B38D103F1804303F504331A6A8E
:1016CC0022F001021A621A6A22F004021A6218E06D
:1016DC001E4A136843F480731360FEF773FD0646CD
:1016EC001A4B1B6813F4807FE0D1FEF76BFD801B57
:1016FC006428F5D90320BEE0114A136A43F00103B4
:10170C001362E36873B3FEF75DFD06460C4B1B6A70
:10171C0013F0020F37D1FEF755FD801B41F28833D1
:10172C009842F3D90320A6E0052B11D0044B1A6A7A
:10173C0022F001021A621A6A22F004021A62E0E72D
:10174C0000100240000042428004424200700040FF
:10175C004D4B1A6A42F004021A621A6A42F00102F4
:10176C001A62CEE7FEF72EFD0646474B1B6A13F0B6
:10177C00020F08D0FEF726FD801B41F288339842F9
:10178C00F3D9032077E0E5B9E369002B72D03E4A28
:10179C00526802F00C02082A56D0022B17D03B4B91
:1017AC0000221A60FEF70EFD0446374B1B6813F03F
:1017BC00007F47D0FEF706FD001B0228F5D9032059
:1017CC0059E0314AD36923F08053D361DCE72F4BC6
:1017DC0000221A60FEF7F6FC05462B4B1B6813F033
:1017EC00007F06D0FEF7EEFC401B0228F5D9032043
:1017FC0041E0236AB3F5803F1AD023494B6823F4A8
:10180C007413226A606A024313434B601F4B01221C
:10181C001A60FEF7D7FC04461B4B1B6813F0007FC5
:10182C000ED1FEF7CFFC001B0228F5D9032022E0D5
:10183C00154A536823F40033A1680B435360DCE76B
:10184C00002018E0002016E0012B16D00E4B5B6830
:10185C0003F48031226A914211D103F47013626A4D
:10186C0093420ED1002006E001207047012002E0D7
:10187C00012000E0002002B070BD0120FBE7012038
:10188C00F9E70120F7E700BF001002406000424278
:10189C0086B0164B0FCB0DF1180C0CE90F0040F273
:1018AC000123ADF80430124B5B6803F00C02082ADC
:1018BC0002D0104806B07047C3F38342624412F85A
:1018CC00102C13F4803F0CD0094B5B68C3F34043DE
:1018DC00634413F8143C074800FB02F0B0FBF3F030
:1018EC00E8E7054800FB02F0E4E700BF745D000880
:1018FC000010024000127A0000093D00002800F0A0
:10190C00A08070B50D460446524B1B6803F00703CC
:10191C008B420BD24F4A136823F007030B4313601F
:10192C00136803F007038B4240F08D80236813F09B
:10193C00020F17D013F0040F04D0474A536843F436
:10194C00E0635360236813F0080F04D0424A5368D5
:10195C0043F460535360404A536823F0F003A1688A
:10196C000B435360236813F0010F31D06368012BD4
:10197C0020D0022B25D0384A126812F0020F64D006
:10198C0035494A6822F0030213434B60FEF71AFCF8
:10199C000646314B5B6803F00C036268B3EB820FB5
:1019AC0016D0FEF70FFC801B41F288339842F0D919
:1019BC00032045E0284A126812F4003FE0D10120D0
:1019CC003EE0254A126812F0007FD9D1012037E0A1
:1019DC00204B1B6803F00703AB420AD91D4A13685E
:1019EC0023F007032B431360136803F00703AB4288
:1019FC002DD1236813F0040F06D0174A536823F433
:101A0C00E063E1680B435360236813F0080F07D0C1
:101A1C00114A536823F46053216943EAC1035360AC
:101A2C00FFF736FF0C4B5B68C3F303130B4AD35C15
:101A3C00D8400B4B18600B4B1868FEF781FB00204D
:101A4C0070BD012070470120FAE70120F8E7012062
:101A5C00F6E700BF00200240001002405C5D000869
:101A6C00180100200400002070B582B00446036801
:101A7C0013F0010F34D03E4BDB6913F0805F47D17C
:101A8C003B4BDA6942F08052DA61DB6903F0805338
:101A9C000193019B0125374B1B6813F4807F39D0D0
:101AAC00334B1B6A13F4407311D0626802F440721A
:101ABC009A420CD02E4A136A23F440702E49012608
:101ACC000E6000260E60106213F0010F36D1284A0A
:101ADC00136A23F4407361680B431362002D3ED1EB
:101AEC00236813F0020F06D0214A536823F44043B5
:101AFC00A1680B435360236813F0100F34D01C4AB9
:101B0C00536823F48003E1680B43536000202CE0FE
:101B1C000025C0E7174A136843F480731360FEF77F
:101B2C0051FB0646134B1B6813F4807FB8D1FEF7AC
:101B3C0049FB801B6428F5D9032016E0FEF742FB15
:101B4C0006460B4B1B6A13F0020FC0D1FEF73AFB93
:101B5C00801B41F288339842F3D9032005E0D36906
:101B6C0023F08053D361BBE7002002B070BD00BFEF
:101B7C0000100240007000404004424270B4036AFE
:101B8C0023F001030362036A4668826922F0730240
:101B9C000C6844EA020523F002028B6813430D4CD7
:101BAC00A04209D00B4CA0420DD0466085614A681A
:101BBC004263036270BC704723F00803CA68134386
:101BCC0023F00403EEE726F440764A6932438E692B
:101BDC001643EAE7002C014030B4036A23F4807307
:101BEC000362036A4568C26922F073020C682243DF
:101BFC0023F400738C6843EA04230F4CA04209D0F1
:101C0C000D4CA0420ED04560C2614A68C2630362AB
:101C1C0030BC704723F40063CC6843EA042323F4FC
:101C2C008063EDE725F440554C6945EA04158C6951
:101C3C0045EA0415E7E700BF002C014030B4036A05
:101C4C0023F480530362036A4468C26922F4E642B7
:101C5C000D6842EA052223F400538D6843EA0533EC
:101C6C00074DA84206D04460C2614A680264036210
:101C7C0030BC704724F480444D6944EA8514F2E783
:101C8C00002C014030B4036A056A25F00105056299
:101C9C00846924F0F00444EA021423F00A030B4391
:101CAC008461036230BC704730B4056A25F01005BE
:101CBC0005628469036A24F4704444EA023423F014
:101CCC00A00343EA01138461036230BC704783684C
:101CDC0023F070030B4343F0070383607047704796
:101CEC0003681B4A90420AD0B0F1804F07D0A2F58E
:101CFC009432904203D002F58062904203D123F0DB
:101D0C0070034A681343124A90420AD0B0F1804FD4
:101D1C0007D0A2F59432904203D002F58062904233
:101D2C0003D123F44073CA68134323F080034A6938
:101D3C00134303608B68C3620B688362044B984245
:101D4C0002D00123436170470B690363F9E700BFBD
:101D5C00002C014040B310B5044690F83D30F3B16F
:101D6C00022384F83D30214651F8040BFFF7B8FFED
:101D7C00012384F8463084F83E3084F83F3084F8F0
:101D8C00403084F8413084F8423084F8433084F891
:101D9C00443084F8453084F83D30002010BD80F884
:101DAC003C3003F0DBFDDBE70120704740B310B59E
:101DBC00044690F83D30F3B1022384F83D302146BF
:101DCC0051F8040BFFF78CFF012384F8463084F89C
:101DDC003E3084F83F3084F8403084F8413084F849
:101DEC00423084F8433084F8443084F8453084F829
:101DFC003D30002010BD80F83C30FFF770FFDBE772
:101E0C000120704730B4036A23F010030362036AA5
:101E1C004468826922F4E6420D6842EA052223F006
:101E2C0020038D6843EA05130E4DA84209D00D4DD1
:101E3C00A8420ED0446082614A688263036230BC5F
:101E4C00704723F08003CD6843EA051323F0400369
:101E5C00EDE724F440644D6944EA85048D6944EA55
:101E6C008504E7E7002C014038B590F83C30012B95
:101E7C0060D004460D46012380F83C300C2A1AD859
:101E8C00DFE802F0071919191D1919193119191957
:101E9C0044000068FFF772FE2268936943F0080360
:101EAC0093612268936923F0040393612268936918
:101EBC0029690B439361002084F83C0038BD00680D
:101ECC00FFF7A0FF2268936943F4006393612268D3
:101EDC00936923F48063936122689369296943EAC7
:101EEC0001239361E7E70068FFF776FE2268D36968
:101EFC0043F00803D3612268D36923F00403D36150
:101F0C002268D36929690B43D361D4E70068FFF7D2
:101F1C0095FE2268D36943F40063D3612268D369C8
:101F2C0023F48063D3612268D369296943EA0123CE
:101F3C00D361C0E70220C1E710B4846824F47F4465
:101F4C0042EA03220A432243826010BC704790F895
:101F5C003C30012B66D010B50446012380F83C3090
:101F6C00022380F83D300268936823F47F4323F00A
:101F7C00770393600B68602B40D022D8402B47D05E
:101F8C000BD9502B0ED1CA6849680068FFF77AFE4E
:101F9C0050212068FFF79BFE04E0202B0CD008D9C1
:101FAC00302B09D0012384F83D30002084F83C000C
:101FBC0010BD0BB1102BF5D119462068FFF787FE29
:101FCC00F0E7702B0ED0B3F5005FEBD1CB684A680D
:101FDC0089680068FFF7B0FF2268936843F4804378
:101FEC009360DFE7CB684A6889680068FFF7A4FF55
:101FFC002268936843F077039360D3E7CA68496813
:10200C000068FFF751FE60212068FFF760FEC9E70A
:10201C00CA6849680068FFF735FE40212068FFF761
:10202C0056FEBFE70220704710B401F01F010123D8
:10203C0003FA01F4036A23EA04030362036A02FA53
:10204C0001F10B43036210BC7047000010B504464D
:10205C00084651BB94F83E30DBB2013B18BF01235C
:10206C00002B5BD1002839D1022384F83E300122A9
:10207C0001462068FFF7D8FF23682A4A93423DD0D7
:10208C002368284A93423ED0B3F1804F3BD0A2F54F
:10209C009432934237D002F58062934233D01A685F
:1020AC0042F001021A60002039E0042908D0082906
:1020BC000DD094F84130DBB2013B18BF0123CFE7C0
:1020CC0094F83F30DBB2013B18BF0123C8E794F80A
:1020DC004030DBB2013B18BF0123C1E7042805D017
:1020EC00082807D0022384F84130C0E7022384F883
:1020FC003F30BCE7022384F84030B8E75A6C42F416
:10210C0000425A64BCE79A6802F00702062A07D01C
:10211C001A6842F001021A60002000E0012010BD94
:10212C000020FCE7002C014038B504460D46002287
:10213C000068FFF779FF23681B4A934214D0236889
:10214C00196A41F21112114208D1196A40F2444243
:10215C00114203D11A6822F001021A609DB90123C1
:10216C0084F83E30002038BD196A41F21112114238
:10217C00E5D1196A40F244421142E0D15A6C22F482
:10218C0000425A64DBE7042D05D0082D07D001234B
:10219C0084F84130E6E7012384F83F30E2E701237D
:1021AC0084F84030DEE700BF002C014090F83C3052
:1021BC00012B2BD030B4012380F83C30022380F863
:1021CC003D3003685C689D6824F070040A68224303
:1021DC005A6003680E4A93420AD0B3F1804F07D07D
:1021EC00A2F59432934203D002F58062934204D15B
:1021FC0025F080054A6815439D60012380F83D3029
:10220C00002380F83C30184630BC704702207047E1
:10221C00002C014084B001A880E80E00002004B01E
:10222C00704703460020A3F844004FF43F42A3F844
:10223C0040207047B0F8403023F47C535B045B0CB7
:10224C00A0F84030002070470020704784B010B4D4
:10225C00044602A880E80E000123A4F840300020B8
:10226C00A4F84000A4F84400A4F8500010BC04B03A
:10227C00704730B403460C7830F8242092B222F424
:10228C00EC4222F0700292B2C87803285AD8DFE8E8
:10229C0000F04E550251002048F280052A4323F8E5
:1022AC0024200C7833F8242092B222F4E04222F05D
:1022BC00700222432A4323F824200A7B002A40F090
:1022CC00B6804A78002A4ED0B3F8502092B21A4405
:1022DC000C7802EB0412CC8864086400A2F8004469
:1022EC000C7833F8242012F0400F0CD033F8242053
:1022FC0092B222F4E04222F0700242F4004242F028
:10230C00C00223F82420CA78012A1DD0097833F89A
:10231C00212092B222F4E04222F0400282F020020C
:10232C0042F4004242F0800223F8212064E042F49F
:10233C000072B1E742F4C0620020ADE742F4806263
:10234C000020A9E70120A7E7097833F8212092B2F1
:10235C0022F4E04222F0400242F4004242F08002B9
:10236C0023F8212048E0B3F8502092B21A440C789C
:10237C0002EB0412CC8864086400A2F80844B3F899
:10238C00502092B21A440C7802EB04120C69ACBBCC
:10239C00B2F80C44A4B224F4F844A4B2A2F80C444D
:1023AC00B2F80C446FEA44446FEA5444A4B2A2F865
:1023BC000C440C7833F8242012F4804F0CD033F8F2
:1023CC00242092B222F4E04222F0700242F4404205
:1023DC0042F0800223F82420097833F8212092B2AD
:1023EC0022F4804222F0700282F4405242F4004205
:1023FC0042F0800223F8212030BC70473E2C09D8D3
:10240C00650814F0010F00D00135AD02ADB2A2F891
:10241C000C54CEE7650914F01F0F00D1013D6FEA93
:10242C00C5646FEA5444A4B2A2F80C44C1E70C781A
:10243C0033F8242092B222F4E04222F0700242F4EB
:10244C00014242F0800223F82420B3F8502092B2CB
:10245C001A440C7802EB04120C8964086400A2F88C
:10246C000044B3F8502092B21A440C7802EB0412D8
:10247C004C8964086400A2F808444A78002A40D1C8
:10248C000C7833F8242012F4804F0CD033F824202D
:10249C0092B222F4E04222F0700242F4404242F046
:1024AC00800223F824200C7833F8242012F0400FFB
:1024BC000CD033F8242092B222F4E04222F07002C5
:1024CC0042F4004242F0C00223F824200D7833F885
:1024DC00252092B222F4804222F0700282F4405203
:1024EC0048F28004224323F82520097833F8212070
:1024FC0092B222F4E04222F04002224323F821203F
:10250C007AE70C7833F8242012F4804F0CD033F88F
:10251C00242092B222F4E04222F0700242F44042B3
:10252C0042F0800223F824200C7833F8242012F097
:10253C00400F0CD033F8242092B222F4E04222F067
:10254C00700242F4004242F0C00223F82420CA7800
:10255C00012A1ED00C7833F8242092B222F4E042E7
:10256C0022F0400282F0200242F4004242F080024B
:10257C0023F82420097833F8212092B222F48042E7
:10258C0022F0700242F4004242F0800223F8212033
:10259C0032E70C7833F8242092B222F4E04222F095
:1025AC00400242F4004242F0800223F82420E1E78A
:1025BC000B7B002B46D14B7813B30A7830F82230C2
:1025CC0013F0400F0CD030F822309BB223F4E043D0
:1025DC0023F0700343F4004343F0C00320F822308F
:1025EC000A7830F822309BB223F4E04323F0400306
:1025FC0043F4004343F0800320F82230002070475E
:10260C000A7830F8223013F4804F0CD030F8223096
:10261C009BB223F4E04323F0700343F4404343F0B4
:10262C00800320F822300A7830F822309BB223F451
:10263C00804323F0700343F4004343F0800320F8FD
:10264C002230DBE710B44B78002B4ED10A7830F8EF
:10265C00223013F4804F0CD030F822309BB223F48C
:10266C00E04323F0700343F4404343F0800320F82D
:10267C0022300A7830F8223013F0400F0CD030F8AA
:10268C0022309BB223F4E04323F0700343F4004365
:10269C0043F0C00320F822300A7830F822309BB285
:1026AC0023F4E04323F0700343F4004343F0C003EE
:1026BC0020F822300B7830F8232092B222F480429A
:1026CC0022F0700248F28004224320F823200A787A
:1026DC0030F822309BB223F4E04323F04003234331
:1026EC0020F82230002010BC70470A7830F82230D5
:1026FC0013F4804F0CD030F822309BB223F4E0431B
:10270C0023F0700343F4404343F0800320F822305D
:10271C000A7830F8223013F0400F0CD030F8223009
:10272C009BB223F4E04323F0700343F4004343F0E3
:10273C00C00320F822300A7830F822309BB223F400
:10274C00E04323F0700343F4404343F0800320F84C
:10275C0022300B7830F8232092B222F4E04222F09F
:10276C00400248F28004224320F823200A7830F8F3
:10277C0022309BB223F4804323F07003234320F8D0
:10278C002230AFE74B788BB10A7830F822309BB20D
:10279C0023F4E04323F0400383F0100343F400439D
:1027AC0043F0800320F82230002070470A7830F87C
:1027BC0022309BB223F4804323F0700383F48053C4
:1027CC0043F4004343F0800320F82230ECE70B7B0A
:1027DC00002B4BD14B7833B30A7830F8223013F0FE
:1027EC00400F0CD030F822309BB223F4E04323F09E
:1027FC00700343F4004343F0C00320F82230CB783D
:10280C00012B33D00A7830F822309BB223F4E0430A
:10281C0023F0400383F0200343F4004343F0800390
:10282C0020F8223022E00A7830F8223013F4804F5E
:10283C000CD030F822309BB223F4E04323F0700329
:10284C0043F4404343F0800320F822300A7830F8F8
:10285C0022309BB223F4804323F0700383F4405363
:10286C0043F4004343F0800320F8223000207047EB
:10287C0011B98023A0F84C3000207047002070471D
:10288C0000207047B0F8440080B2704700207047B9
:10289C0010B45C1C640800EB420202F5806244B187
:1028AC000B78487843EA002322F8043B0231013CC0
:1028BC00F5E710BC704770B505460C464B78012BFC
:1028CC0037D00A7B002A40F026838B690A69934231
:1028DC0040F204839B1A8B61B5F850309BB22B44A9
:1028EC00217803EB0113002A40F0FC82B3F80C248E
:1028FC0092B222F4F84292B2A3F80C24B3F80C244E
:10290C006FEA42426FEA524292B2A3F80C24227848
:10291C0035F822309BB223F4804323F0700383F408
:10292C00405343F4004343F0800325F82230002049
:10293C0070BD8E690A69964200D91646237B002B1E
:10294C0039D0E378022B58D0227835F822309BB25C
:10295C0023F4E04323F0700343F4014343F080037A
:10296C0025F82230236A9B1B2362237835F8232019
:10297C0012F0400F00F026826278002A40F0CA81E3
:10298C00B5F8502092B22A4402EB0313002E40F00B
:10299C00A881B3F80C2492B222F4F84292B2A3F8B4
:1029AC000C24B3F80C246FEA42426FEA524292B202
:1029BC00A3F80C24B0E1B6B23346E288616928462C
:1029CC00FFF766FFB5F850309BB22B44227803EB2F
:1029DC000213A3F80464227835F822309BB223F456
:1029EC00E04323F0400383F0300343F4004343F00F
:1029FC00800325F8223000209AE7236A9A4280F05F
:102A0C005281227835F822309BB223F4E04323F034
:102A1C00700343F4014343F0800325F82230236A0A
:102A2C009B1B2362237835F8232012F0400F00F013
:102A3C009D8062788ABBB5F8502092B22A4402EB92
:102A4C0003138EB9B3F80C2492B222F4F84292B26A
:102A5C00A3F80C24B3F80C246FEA42426FEA5242FA
:102A6C0092B2A3F80C241AE03E2E09D8720816F084
:102A7C00010F00D00132920292B2A3F80C240EE0A6
:102A8C00720916F01F0F00D1013A6FEAC2626FEAA9
:102A9C00524292B2A3F80C2401E0012A2BD0B3B21B
:102AAC00628961692846FFF7F3FE63693344636109
:102ABC00236A2269934228D99B1B23626378002BDB
:102ACC0040D1B5F850309BB22B44227803EB021363
:102ADC00FEB9B3F8042492B222F4F84292B2A3F8ED
:102AEC000424B3F804246FEA42426FEA524292B2D1
:102AFC00A3F8042428E0B5F8502092B22A4402EB43
:102B0C000313B2B2A3F80C24C9E7002222621E46BA
:102B1C00D4E73E2E09D8720816F0010F00D001320E
:102B2C00920292B2A3F804240EE0720916F01F0F61
:102B3C0000D1013A6FEAC2626FEA524292B2A3F834
:102B4C00042401E0012B06D0B3B222896169284626
:102B5C00FFF79EFE3FE7B5F850309BB22B4422782E
:102B6C0003EB0213B2B2A3F80424EDE762788ABB3C
:102B7C00B5F8502092B22A4402EB03138EB9B3F885
:102B8C00042492B222F4F84292B2A3F80424B3F8CB
:102B9C0004246FEA42426FEA524292B2A3F8042430
:102BAC001AE03E2E09D8720816F0010F00D001323F
:102BBC00920292B2A3F804240EE0720916F01F0FD1
:102BCC0000D1013A6FEAC2626FEA524292B2A3F8A4
:102BDC00042401E0012A2BD0B3B222896169284672
:102BEC00FFF756FE636933446361236A226993429B
:102BFC0028D99B1B23626378002B40D1B5F8503049
:102C0C009BB22B44227803EB0213FEB9B3F80C24CD
:102C1C0092B222F4F84292B2A3F80C24B3F80C242A
:102C2C006FEA42426FEA524292B2A3F80C2428E0B7
:102C3C00B5F8502092B22A4402EB0313B2B2A3F8B7
:102C4C000424C9E7002222621E46D4E73E2E09D88E
:102C5C00720816F0010F00D00132920292B2A3F862
:102C6C000C240EE0720916F01F0F00D1013A6FEA26
:102C7C00C2626FEA524292B2A3F80C2401E0012B1B
:102C8C0006D0B3B2628961692846FFF701FEA2E65D
:102C9C00B5F850309BB22B44227803EB0213B2B23E
:102CAC00A3F80C24EDE7217835F8212092B222F418
:102CBC00E24222F0700242F4004242F0800225F817
:102CCC002120B5F8502092B22A44217802EB01124F
:102CDC009BB2A2F80434228961692846FFF7D8FD1B
:102CEC0079E63E2E09D8720816F0010F00D0013299
:102CFC00920292B2A3F80C240EE0720916F01F0F88
:102D0C0000D1013A6FEAC2626FEA524292B2A3F862
:102D1C000C2401E0012A26D0B3B2628961692846ED
:102D2C00FFF7B6FD636933446361236A22699342FA
:102D3C0023D99B1B2362002E3FF44DAE63786BBBF3
:102D4C00B5F850309BB22B44227803EB02133E2E85
:102D5C0017D8720816F0010F00D00132920292B20D
:102D6C00A3F804241CE0B5F8502092B22A4402EBDC
:102D7C000313B2B2A3F80C24CEE7002222621E4643
:102D8C00D9E7720916F01F0F00D1013A6FEAC2623F
:102D9C006FEA524292B2A3F8042401E0012B06D050
:102DAC00B3B2228961692846FFF772FD13E6B5F8C4
:102DBC0050309BB22B44227803EB0213B2B2A3F82F
:102DCC000424EDE762788ABBB5F8502092B22A440D
:102DDC0002EB03138EB9B3F8042492B222F4F84236
:102DEC0092B2A3F80424B3F804246FEA42426FEAC7
:102DFC00524292B2A3F804241AE03E2E09D872086B
:102E0C0016F0010F00D00132920292B2A3F8042402
:102E1C000EE0720916F01F0F00D1013A6FEAC26280
:102E2C006FEA524292B2A3F8042401E0012A26D0A0
:102E3C00B3B2228961692846FFF72AFD63693344DE
:102E4C006361236A2269934223D99B1B2362002E60
:102E5C003FF4C1AD63786BBBB5F850309BB22B44DB
:102E6C00227803EB02133E2E17D8720816F0010FCE
:102E7C0000D00132920292B2A3F80C241CE0B5F8F7
:102E8C00502092B22A4402EB0313B2B2A3F80424EA
:102E9C00CEE7002222621E46D9E7720916F01F0FF8
:102EAC0000D1013A6FEAC2626FEA524292B2A3F8C1
:102EBC000C2401E0012B06D0B3B26289616928466B
:102ECC00FFF7E6FC87E5B5F850309BB22B4422782F
:102EDC0003EB0213B2B2A3F80C24EDE700228A61D3
:102EEC001A46F9E43E2A09D8510812F0010F00D015
:102EFC000131890289B2A3F80C1408E5510912F0CA
:102F0C001F0F00D101396FEAC1616FEA514189B2DB
:102F1C00A3F80C14FBE4CA78022A45D0012A40F02D
:102F2C00208189692269914240F2D480891AA16179
:102F3C00D3B9B5F850309BB22B44217803EB011375
:102F4C00002A40F0CB80B3F8041489B221F4F84184
:102F5C0089B2A3F80414B3F804146FEA41416FEA80
:102F6C00514189B2A3F804146378002B40F0EA8035
:102F7C00B5F850309BB22B44217803EB0113002A97
:102F8C0040F0C580B3F80C2492B222F4F84292B20D
:102F9C00A3F80C24B3F80C246FEA42426FEA5242B5
:102FAC0092B2A3F80C24B2E4CBB9B0F850309BB277
:102FBC0003440A7803EB02130A6972BBB3F80424C6
:102FCC0092B222F4F84292B2A3F80424B3F8042487
:102FDC006FEA42426FEA524292B2A3F80424637839
:102FEC00002B4CD1B5F850309BB22B44227803EB1C
:102FFC000213226952BBB3F80C2492B222F4F842A9
:10300C0092B2A3F80C24B3F80C246FEA42426FEA94
:10301C00524292B2A3F80C2433E03E2A09D851084C
:10302C0012F0010F00D001318A0292B2A3F80424ED
:10303C00D5E7510912F01F0F00D101396FEAC162B7
:10304C006FEA524292B2A3F80424C8E73E2A09D888
:10305C00510812F0010F00D001318A0292B2A3F88C
:10306C000C240EE0510912F01F0F00D101396FEA48
:10307C00C1626FEA524292B2A3F80C2401E0012B18
:10308C001DD0E369002B3FF442AC227835F82210B6
:10309C0044F2400303EA01008B4302D000287FF482
:1030AC0036AC35F822309BB223F4E04323F07003A6
:1030BC0043F4004343F0C00325F8223027E4B5F86D
:1030CC0050309BB22B44227803EB0213228AA3F8D4
:1030DC000C24D6E70022A2610A4629E73E2A09D829
:1030EC00510812F0010F00D00131890289B2A3F806
:1030FC00041439E7510912F01F0F00D101396FEA9E
:10310C00C1616FEA514189B2A3F804142CE73E2A3D
:10311C000AD8510812F0010F00D001318A0292B284
:10312C00A3F80C24FFF7F3BB510912F01F0F00D1C9
:10313C0001396FEAC1626FEA524292B2A3F80C24D1
:10314C00FFF7E5BB012B7FF4E2ABB5F850309BB237
:10315C002B44217803EB011392B2A3F80C24FFF754
:10316C00D6BB0120FFF7E4BB10B45C0800EB4200B7
:10317C0000F5806044B130F8042B0A70C2F30722CA
:10318C004A700231013CF5E713F0010F01D00388BE
:10319C000B7010BC7047000090B583B000AF0446B4
:1031AC00084611461A462346FB710346BB710B4673
:1031BC007B7113463B712C4B1B783A2B02D92A4B53
:1031CC0000221A70284B1B781A46FB791B09D9B2BE
:1031DC00264B9954244B1B780133DAB2224B1A70CC
:1031EC0097F9063003F00F035AB297F907301343DF
:1031FC0059B21D4B1B781A46C9B21C4B99541A4B29
:10320C001B780133DAB2184B1A70174B1B781A461D
:10321C007B7903F07F03D9B2144B9954124B1B7872
:10322C000133DAB2104B1A700F4B1B781A463B79EC
:10323C0003F07F03D9B20D4B99540B4B1B78013320
:10324C00DAB2094B1A70084B1B789BB21946074827
:10325C0001F024FF0346002B02D1034B00221A700D
:10326C0000BF0C37BD4690BDDC0100209C01002046
:10327C0080B500AF00221249124800F095FA0346BF
:10328C00002B01D002F047FB0F490E4800F0B7FAB3
:10329C000346002B01D002F03EFB0C49094801F01B
:1032AC00D3FD0346002B01D002F035FB054800F09E
:1032BC00BFFA0346002B01D002F02DFB00BF80BDEE
:1032CC00080000200C0200206400002004010020F3
:1032DC0080B582B000AF78607B68D3F8E8227B6859
:1032EC0003F52C731946104600F0EAFA00BF0837B4
:1032FC00BD4680BD80B582B000AF78600B46FB70D8
:10330C007B68D3F8E802FA78796813469B0013447B
:10331C00DB000B4403F5BE731A68FB78194600F00A
:10332C001CFB00BF0837BD4680BD80B582B000AF26
:10333C0078600B46FB707B68D3F8E802FA78796802
:10334C0013469B001344DB000B443C331A68FB7898
:10335C00194600F073FB00BF0837BD4680BD80B531
:10336C0082B000AF78607B68D3F8E832184600F082
:10337C007EFC00BF0837BD4680BD80B584B000AF71
:10338C0078600123FB737B689B68022B02D10123BD
:10339C00FB7301E002F0BFFA7B68D3F8E832FA7BEA
:1033AC001146184600F030FC7B68D3F8E83218461A
:1033BC0000F0E9FB00BF1037BD4680BD80B582B080
:1033CC0000AF78607B68D3F8E832184600F02BFC2D
:1033DC007B689B69002B05D0044B1B69034A43F0A7
:1033EC000603136100BF0837BD4680BD00ED00E049
:1033FC0080B582B000AF78607B68D3F8E8321846AD
:10340C0000F025FC00BF0837BD4680BD80B582B0FA
:10341C0000AF78607B681B78002B4ED1294A7B6803
:10342C00C2F8E8327B68274AC3F89822254B264A13
:10343C001A60244B08225A60224B02229A60214BBC
:10344C0002221A611F4B00225A611E4B00229A6104
:10345C001C4B0022DA611B48FDF7E0F80346002BF9
:10346C0001D002F058FA7B68D3F898021823002296
:10347C000021FDF7D2FF7B68D3F898025823002275
:10348C008021FDF7CAFF7B68D3F89802C023002285
:10349C008121FDF7C2FF7B68D3F898024FF4887343
:1034AC0000220121FDF7B9FF7B68D3F898024FF495
:1034BC00807300228221FDF7B0FF002318460837E5
:1034CC00BD4680BDA8040020005C004080B584B0DF
:1034DC0000AF78600023FB730023BB737B68D3F8C9
:1034EC0098321846FDF720F90346FB73FB7B184610
:1034FC0000F02EF90346BB73BB7B18461037BD4654
:10350C0080BD80B584B000AF7860084611461A467D
:10351C000346FB700B46BB7013463B800023FB73CA
:10352C000023BB737B68D3F89802BB783A88F97890
:10353C00FDF740FE0346FB73FB7B184600F008F9D1
:10354C000346BB73BB7B18461037BD4680BD80B5A8
:10355C0084B000AF78600B46FB700023FB73002334
:10356C00BB737B68D3F89832FA7811461846FDF78E
:10357C005DFE0346FB73FB7B184600F0E9F803463F
:10358C00BB73BB7B18461037BD4680BD80B584B07D
:10359C0000AF78600B46FB700023FB730023BB73FA
:1035AC007B68D3F89832FA7811461846FDF7BEFEC0
:1035BC000346FB73FB7B184600F0CAF80346BB734B
:1035CC00BB7B18461037BD4680BD80B584B000AFBC
:1035DC0078600B46FB700023FB730023BB737B6886
:1035EC00D3F89832FA7811461846FDF7DBFE0346FD
:1035FC00FB73FB7B184600F0ABF80346BB73BB7B3D
:10360C0018461037BD4680BD80B485B000AF7860D9
:10361C000B46FB707B68D3F89832FB6097F903304C
:10362C00002B0CDAFB7803F07F03F9685A1C134665
:10363C009B001344DB000B4402331B780BE0FB783C
:10364C0003F07F02F96813469B001344DB000B4424
:10365C0003F5B5731B7818461437BD4680BC70470C
:10366C0080B584B000AF78600B46FB700023FB7311
:10367C000023BB737B68D3F89832FA78114618464E
:10368C00FDF79BFC0346FB73FB7B184600F060F8D0
:10369C000346BB73BB7B18461037BD4680BD80B557
:1036AC0086B000AFF8607A601A460B46FB72134680
:1036BC003B810023FB750023BB75FB68D3F8980294
:1036CC003B89F97A7A68FDF70EFE0346FB75FB7DA4
:1036DC00184600F03DF80346BB75BB7D18461837FD
:1036EC00BD4680BD80B586B000AFF8607A601A46E2
:1036FC000B46FB7213463B810023FB750023BB7505
:10370C00FB68D3F898023B89F97A7A68FDF7C0FD1B
:10371C000346FB75FB7D184600F01AF80346BB7593
:10372C00BB7D18461837BD4680BD80B582B000AF52
:10373C0078600B46FB707B68D3F89832FA781146A8
:10374C001846FDF7C7FD034618460837BD4680BD31
:10375C0080B485B000AF0346FB710023FB73FB798B
:10376C00032B17D801A252F823F000BF89370008A9
:10377C008F370008953700089B3700080023FB7330
:10378C000BE00223FB7308E00123FB7305E002232B
:10379C00FB7302E00223FB7300BFFB7B184614375C
:1037AC00BD4680BC704700BF80B584B000AFF860E8
:1037BC00B9601346FB71FB68002B01D102231AE0A0
:1037CC00FB68D3F88C32002B03D0FB680022C3F8C3
:1037DC008C22BB68002B03D0FB68BA68C3F8882224
:1037EC00FB68012283F87422FB68FA791A70F86876
:1037FC00FFF70CFE002318461037BD4680BD80B481
:10380C0085B000AF786039600023FB733B68002BF8
:10381C0006D07B683A68C3F88C220023FB7301E066
:10382C000223FB73FB7B18461437BD4680BC7047E4
:10383C0080B582B000AF78607868FFF747FE002350
:10384C0018460837BD4680BD80B483B000AF7860A1
:10385C00002318460C37BD4680BC704780B584B039
:10386C0000AF78600B46FB700223FB737B68D3F8C8
:10387C008C32002B0CD07B68D3F88C321B68FA7816
:10388C001146786898470346002B01D10023FB733F
:10389C00FB7B18461037BD4680BD80B582B000AFAB
:1038AC0078600B46FB707B68D3F88C325B68FA78D7
:1038BC00114678689847002318460837BD4680BDE6
:1038CC0080B582B000AF786039607B6803F52073F7
:1038DC003968184600F063FE7B680122C3F86C223D
:1038EC007B68B3F886321A467B68C3F870227B6813
:1038FC0093F8803203F01F03022B16D0022B1CD836
:10390C00002B02D0012B08D017E07B6803F5207345
:10391C001946786800F0C6F91AE07B6803F5207345
:10392C001946786800F028FA12E07B6803F52073DA
:10393C001946786800F068FA0AE07B6893F88032E0
:10394C0023F07F03DBB219467868FFF71FFE00BF38
:10395C00002318460837BD4680BD80B586B000AF41
:10396C00F8600B467A60FB72FB7A002B4BD1FB683C
:10397C0003F5A0737B61FB68D3F86C32032B34D155
:10398C007B69DA687B691B699A4219D97B69DA68A9
:10399C007B691B69D21A7B69DA607B69DA687B699F
:1039AC001B699A4203D27B69DB689BB202E07B699C
:1039BC001B699BB21A467968F86800F0F1FF38E091
:1039CC00FB68D3F88C321B69002B0AD0FB6893F888
:1039DC007432032B05D1FB68D3F88C321B69F86861
:1039EC009847F86800F0EEFF23E0FB68D3F86C32E0
:1039FC00052B1ED1FB680022C3F86C220021F8684D
:103A0C00FFF7C4FD15E0FB68D3F88C329B69002BE3
:103A1C000DD0FB6893F87432032B08D1FB68D3F8F4
:103A2C008C329B69FA7A1146F868984701E00223B8
:103A3C0000E0002318461837BD4680BD80B586B01F
:103A4C0000AFF8600B467A60FB72FB7A002B7FD1DB
:103A5C00FB6814337B61FB68D3F86C32022B5CD1AE
:103A6C007B69DA687B691B699A4215D97B69DA68CC
:103A7C007B691B69D21A7B69DA607B69DB689BB254
:103A8C001A467968F86800F05BFF002300220021D9
:103A9C00F868FFF727FE4EE07B699B687A6912692C
:103AAC00B3FBF2F102FB01F29B1A002B1CD17B69D8
:103ABC009A687B691B699A4216D37B699A68FB6882
:103ACC00D3F870329A420FD200220021F86800F02D
:103ADC0037FFFB680022C3F870220023002200216C
:103AEC00F868FFF7FFFD26E0FB68D3F88C32DB6843
:103AFC00002B0AD0FB6893F87432032B05D1FB68BA
:103B0C00D3F88C32DB68F86898478021F868FFF7A7
:103B1C003DFDF86800F069FF0DE0FB68D3F86C32EE
:103B2C00042B04D0FB68D3F86C32002B03D180211A
:103B3C00F868FFF72BFDFB6893F87832012B1DD149
:103B4C00F868FFF781FEFB68002283F8782215E005
:103B5C00FB68D3F88C325B69002B0DD0FB6893F8B3
:103B6C007432032B08D1FB68D3F88C325B69FA7A78
:103B7C001146F868984701E0022300E0002318463C
:103B8C001837BD4680BD80B582B000AF7860402349
:103B9C00002200217868FFF7B4FC7B680122C3F88F
:103BAC0044217B684022C3F850214023002280210D
:103BBC007868FFF7A6FC7B6801229A617B6840223B
:103BCC005A627B68012283F874227B680022C3F856
:103BDC006C227B6800225A607B680022C3F87C222E
:103BEC007B68D3F89032002B09D07B68D3F88C32E9
:103BFC005B687A685268D2B211467868984700239D
:103C0C0018460837BD4680BD80B483B000AF7860DD
:103C1C000B46FB707B68FA781A74002318460C3735
:103C2C00BD4680BC704780B483B000AF78607B68C1
:103C3C0093F874227B6883F875227B68042283F8DE
:103C4C007422002318460C37BD4680BC704780B4E4
:103C5C0083B000AF78607B6893F875227B6883F83B
:103C6C007422002318460C37BD4680BC704780B5C3
:103C7C0082B000AF78607B6893F87432032B0BD161
:103C8C007B68D3F88C32DB69002B05D07B68D3F8CA
:103C9C008C32DB6978689847002318460837BD4694
:103CAC0080BD000080B584B000AF7860396000231F
:103CBC00FB733B681B7803F06003402B05D0402B53
:103CCC004FD8002B09D0202B4BD17B68D3F88C32EA
:103CDC009B6839687868984748E03B685B78092BA3
:103CEC0039D801A252F823F0453D0008593D00088F
:103CFC00633D00084F3D0008633D0008273D000868
:103D0C001D3D0008633D00083B3D0008313D0008A7
:103D1C003968786800F0DAF922E03968786800F0E0
:103D2C00CFFA1DE03968786800F00EFB18E03968AE
:103D3C00786800F097FB13E03968786800F0C7FBEF
:103D4C000EE03968786800F0F5FB09E039687868AE
:103D5C0000F004FC04E03968786800F05CFC00BFFB
:103D6C0004E03968786800F056FC00BFFB7B18460D
:103D7C001037BD4680BD00BF80B584B000AF786001
:103D8C0039600023FB733B681B7803F06003402B06
:103D9C0005D0402B2ED8002B01D0202B2AD17B68AC
:103DAC0093F87432013B022B1DD83B689B88DBB225
:103DBC00012B13D87B68D3F88C329B6839687868F0
:103DCC0098470346FB733B68DB88002B10D1FB7BC9
:103DDC00002B0DD1786800F0F5FD09E039687868A2
:103DEC0000F019FC04E03968786800F014FC00E07D
:103DFC0000BF04E03968786800F00DFC00BF0023B8
:103E0C0018461037BD4680BD80B584B000AF7860D1
:103E1C0039600023FB733B689B88BB733B681B7842
:103E2C0003F06003402B07D0402B00F24481002BA1
:103E3C000AD0202B40F03F817B68D3F88C329B68F2
:103E4C003968786898473BE13B681B7803F060035E
:103E5C00202B0AD17B68D3F88C329B683968786840
:103E6C0098470346FB73FB7B2BE13B685B78032B8A
:103E7C0007D0032B00F31981002B72D0012B3AD001
:103E8C0013E17B6893F87432022B02D0032B15D00C
:103E9C002BE0BB7B002B0CD0BB7B802B09D0BB7BDE
:103EAC0019467868FFF772FB80217868FFF76EFB84
:103EBC0020E03968786800F0AEFB1BE03B685B885B
:103ECC00002B0ED1BB7B002B0BD0BB7B802B08D0E7
:103EDC003B68DB88002B04D1BB7B19467868FFF765
:103EEC0055FB786800F06EFD04E03968786800F0E6
:103EFC0092FB00BFDEE07B6893F87432022B02D099
:103F0C00032B15D026E0BB7B002B0CD0BB7B802B6E
:103F1C0009D0BB7B19467868FFF738FB802178689D
:103F2C00FFF734FB1CE03968786800F074FB17E08D
:103F3C003B685B88002B12D1BB7B03F07F03002B0B
:103F4C0004D0BB7B19467868FFF73FFB786800F01C
:103F5C0039FD04E03968786800F05DFB00E000BFD3
:103F6C00A8E07B6893F87432022B02D0032B31D07B
:103F7C0095E0BB7B002B07D0BB7B802B04D0396832
:103F8C00786800F048FB8FE097F90E30002B0BDAC5
:103F9C00BB7B03F07F0213469B0013449B00103342
:103FAC007A68134404330AE0BB7B03F07F021346A8
:103FBC009B0013449B0003F5A0737A681344BB6009
:103FCC00BB6800221A60BB6802221946786800F0B0
:103FDC009BFC69E097F90E30002B11DABB7B03F0E8
:103FEC000F02796813469B0013449B000B44183353
:103FFC001B68002B17D13968786800F00CFB53E074
:10400C00BB7B03F00F02796813469B0013449B00A3
:10401C000B4403F5A2731B68002B04D13968786834
:10402C0000F0F9FA40E097F90E30002B0BDABB7B6D
:10403C0003F07F0213469B0013449B0010337A68F5
:10404C00134404330AE0BB7B03F07F0213469B004E
:10405C0013449B0003F5A0737A681344BB60BB7BCD
:10406C00002B02D0BB7B802B03D1BB6800221A60D3
:10407C000EE0BB7B19467868FFF7C6FA0346002BA7
:10408C0003D0BB6801221A6002E0BB6800221A60F0
:10409C00BB6802221946786800F036FC04E03968E7
:1040AC00786800F0B8FA00BF04E03968786800F06E
:1040BC00B2FA00BF04E03968786800F0ACFA00BFCF
:1040CC00FB7B18461037BD4680BD000080B584B020
:1040DC0000AF786039603B685B881B0A9BB2013B80
:1040EC00062B00F2C98001A252F823F015410008FA
:1040FC002D4100086D4100088542000885420008EA
:10410C0031420008574200087B68D3F888321B689C
:10411C007A68127C07F10A0110469847F860B0E003
:10412C007B681B7C002B0DD17B68D3F88C329B6A8F
:10413C0007F10A0210469847F860FB680133022227
:10414C001A709EE07B68D3F88C32DB6A07F10A02A6
:10415C0010469847F860FB68013302221A7090E011
:10416C003B685B88DBB2052B56D801A252F823F0D2
:10417C0095410008AD410008C5410008DD4100082B
:10418C00F54100080D4200087B68D3F888325B6863
:10419C007A68127C07F10A0110469847F86040E0F3
:1041AC007B68D3F888329B687A68127C07F10A0125
:1041BC0010469847F86034E07B68D3F88832DB68A7
:1041CC007A68127C07F10A0110469847F86028E0DB
:1041DC007B68D3F888321B697A68127C07F10A0174
:1041EC0010469847F8601CE07B68D3F888325B690E
:1041FC007A68127C07F10A0110469847F86010E0C3
:10420C007B68D3F888329B697A68127C07F10A01C3
:10421C0010469847F86004E03968786800F0FBF9BC
:10422C004BE02EE07B681B7C002B09D17B68D3F81C
:10423C008C325B6B07F10A0210469847F86020E05D
:10424C003968786800F0E7F937E07B681B7C002B55
:10425C000DD17B68D3F88C321B6B07F10A02104628
:10426C009847F860FB68013307221A7009E0396837
:10427C00786800F0D0F920E03968786800F0CBF964
:10428C001BE07B89002B11D03B68DB88002B0DD009
:10429C003B68DA887B89934228BF13469BB27B81AB
:1042AC007B891A46F968786800F02EFB3B68DB883E
:1042BC00002B02D1786800F085FB1037BD4680BD1D
:1042CC0080B584B000AF786039603B689B88002B68
:1042DC0030D13B68DB88002B2CD13B685B887F2B73
:1042EC0028D83B685B88DBB203F07F03FB737B68E9
:1042FC0093F87432032B04D13968786800F08BF989
:10430C001DE07B68FA7B83F87622FB7B1946786884
:10431C00FFF7A6F9786800F055FBFB7B002B04D067
:10432C007B68022283F8742209E07B68012283F8FF
:10433C00742204E03968786800F06DF900BF00BFA2
:10434C001037BD4680BD000080B582B000AF7860EC
:10435C0039603B685B88DAB2414B1A70404B1B7872
:10436C00012B04D93968786800F055F975E07B6841
:10437C0093F87432022B02D0032B23D062E0384B1B
:10438C001B78002B1AD0364B1B781A467B685A6068
:10439C007B68032283F87422314B1B7819467868AA
:1043AC00FFF75CFA0346022B04D13968786800F0F9
:1043BC0032F952E0786800F005FB4EE0786800F0C6
:1043CC0001FB4AE0264B1B78002B12D17B680222A2
:1043DC0083F87422224B1B781A467B685A60204B58
:1043EC001B7819467868FFF758FA786800F0EAFAF3
:1043FC0033E01B4B1B781A467B685B689A421DD0D6
:10440C007B685B68DBB219467868FFF746FA144B99
:10441C001B781A467B685A60114B1B7819467868D2
:10442C00FFF71CFA0346022B04D13968786800F0B8
:10443C00F2F812E0786800F0C5FA0EE0786800F047
:10444C00C1FA0AE03968786800F0E5F8044B1B788B
:10445C0019467868FFF721FA00BF0837BD4680BDC2
:10446C00DD01002080B582B000AF786039603B6818
:10447C00DB88012B04D03968786800F0CCF822E096
:10448C007B6893F87432022B02DC002B03DC15E002
:10449C00032B0BD012E07B6800229A607B680833F8
:1044AC0001221946786800F02FFA0CE07B6804337F
:1044BC0001221946786800F027FA04E03968786818
:1044CC0000F0A9F800BF00BF0837BD4680BD80B51D
:1044DC0082B000AF786039607B6893F87432013B2E
:1044EC00022B1ED83B68DB88022B04D03968786815
:1044FC0000F091F81AE07B680122DA607B68D3F84F
:10450C007C32002B05D07B68DB6843F002027B68B1
:10451C00DA607B680C3302221946786800F0F4F9F3
:10452C0004E03968786800F076F800BF00BF0837FF
:10453C00BD4680BD80B582B000AF786039603B6805
:10454C005B88012B06D17B680122C3F87C2278683A
:10455C0000F038FA00BF0837BD4680BD80B582B088
:10456C0000AF786039607B6893F87432013B022BA2
:10457C000BD83B685B88012B0CD17B680022C3F8FD
:10458C007C22786800F01EFA04E03968786800F044
:10459C0042F800E000BF00BF0837BD4680BD80B4C4
:1045AC0083B000AF786039603B681A787B681A700A
:1045BC003B685A787B685A703B6802331B789AB216
:1045CC003B6803331B789BB21B029BB213449AB219
:1045DC007B685A803B6804331B789AB23B6805337E
:1045EC001B789BB21B029BB213449AB27B689A80D5
:1045FC003B6806331B789AB23B6807331B789BB237
:10460C001B029BB213449AB27B68DA8000BF0C3752
:10461C00BD4680BC704780B582B000AF7860396011
:10462C0080217868FEF7B2FF00217868FEF7AEFFB4
:10463C0000BF0837BD4680BD80B586B000AFF860BE
:10464C00B9607A600023FB75FB68002B32D0F868E8
:10465C0000F034F8034601339BB25B009AB27B68DE
:10466C001A80FB7D5A1CFA751A46BB6813447A688B
:10467C0012781A70FB7D5A1CFA751A46BB681344E3
:10468C0003221A7012E0FB685A1CFA60FA7D511C66
:10469C00F9751146BA680A441B781370FB7D5A1CD5
:1046AC00FA751A46BB68134400221A70FB681B7813
:1046BC00002BE8D100BF1837BD4680BD80B485B053
:1046CC0000AF78600023FB7305E0FB7B0133FB73C9
:1046DC007B6801337B607B681B78002BF5D1FB7BFF
:1046EC0018461437BD4680BC7047000080B483B0B8
:1046FC0000AF03463960FB713B6812221A80034BF2
:10470C0018460C37BD4680BC704700BF2400002003
:10471C0080B483B000AF03463960FB713B68042260
:10472C001A80034B18460C37BD4680BC704700BF3F
:10473C003800002080B582B000AF03463960FB71B1
:10474C00FB79002B05D13A6807490848FFF774FF3D
:10475C0004E03A6804490548FFF76EFF024B18461F
:10476C000837BD4680BD00BF94070020205D0008BF
:10477C0080B582B000AF03463960FB713A680449DA
:10478C000448FFF759FF024B18460837BD4680BD59
:10479C00940700202C5D000880B582B000AF034662
:1047AC003960FB713B681A221A8000F043F8024B07
:1047BC0018460837BD4680BD3C00002080B582B04D
:1047CC0000AF03463960FB71FB79002B05D13A68C9
:1047DC0007490848FFF730FF04E03A6804490548E8
:1047EC00FFF72AFF024B18460837BD4680BD00BFB5
:1047FC0094070020405D000880B582B000AF0346EE
:10480C003960FB71FB79002B05D13A6807490848E0
:10481C00FFF712FF04E03A6804490548FFF70CFF64
:10482C00024B18460837BD4680BD00BF94070020D8
:10483C004C5D000880B584B000AF0F4B1B68FB606B
:10484C000E4B1B68BB600E4B1B687B60FA687B6869
:10485C001344FB60FB68002B09D008220949F86857
:10486C0000F014F804220849B86800F00FF800BFF3
:10487C001037BD4680BD00BFE8F7FF1FECF7FF1FE8
:10488C00F0F7FF1F3E0000204E00002080B487B0E0
:10489C0000AFF860B9601346FB710023FB75002371
:1048AC00FB7527E0FB681B0F092B0BD8FB681B0F54
:1048BC00DAB2FB7D5B001946BB680B443032D2B2D6
:1048CC001A700AE0FB681B0FDAB2FB7D5B0019461D
:1048DC00BB680B443732D2B21A70FB681B01FB6009
:1048EC00FB7D5B000133BA68134400221A70FB7D18
:1048FC000133FB75FA7DFB799A42D3D300BF00BF1D
:10490C001C37BD4680BC704780B584B000AFF860E2
:10491C00B9601346FB80FB680222C3F86C22FA884C
:10492C00FB68DA61FA88FB681A62FB88BA680021B6
:10493C00F868FEF7B4FE002318461037BD4680BD5C
:10494C0080B584B000AFF860B9601346FB80FB887B
:10495C00BA680021F868FEF7A2FE0023184610374B
:10496C00BD4680BD80B584B000AFF860B960134619
:10497C00FB80FB680322C3F86C22FA88FB68C3F83F
:10498C004821FA88FB68C3F84C21FB88BA680021DF
:10499C00F868FEF7A7FE002318461037BD4680BD09
:1049AC0080B584B000AFF860B9601346FB80FB881B
:1049BC00BA680021F868FEF795FE002318461037F8
:1049CC00BD4680BD80B582B000AF78607B680422A4
:1049DC00C3F86C220023002200217868FEF75FFEEA
:1049EC00002318460837BD4680BD80B582B000AFA5
:1049FC0078607B680522C3F86C220023002200211A
:104A0C007868FEF76FFE002318460837BD4680BD58
:104A1C0080B584B000AF78600B46FB700023FB734D
:104A2C007B681B7C002B15D14FF400730222812173
:104A3C007868FEF766FD7B680122DA624FF400733A
:104A4C00022201217868FEF75CFD7B680122C3F825
:104A5C00582112E04023022281217868FEF751FD93
:104A6C007B680122DA624023022201217868FEF77A
:104A7C0048FD7B680122C3F85821082303228221B8
:104A8C007868FEF73EFD7B6801221A644FF40770CC
:104A9C0001F060F803461A467B68C3F890227B68E5
:104AAC00D3F89032002B02D10123FB7326E07B68F4
:104ABC00D3F89032BB607B68D3F894321B6898476C
:104ACC00BB680022C3F81422BB680022C3F818226A
:104ADC007B681B7C002B09D1BB68D3F804224FF4F4
:104AEC00007301217868FEF7FDFD07E0BB68D3F881
:104AFC000422402301217868FEF7F4FDFB7B184665
:104B0C001037BD4680BD80B584B000AF78600B46D1
:104B1C00FB700023FB7381217868FEF718FD7B681E
:104B2C000022DA6201217868FEF711FD7B68002211
:104B3C00C3F8582182217868FEF709FD7B680022B2
:104B4C001A647B68D3F89032002B0ED07B68D3F8B4
:104B5C0094325B6898477B68D3F89032184601F022
:104B6C0001F87B680022C3F89022FB7B18461037B3
:104B7C00BD4680BD80B586B000AF786039607B687B
:104B8C00D3F890323B610023FB730023BB810023DD
:104B9C00FB753B681B7803F06003002B39D0202B8E
:104BAC007FD13B68DB88002B29D03B681B785BB23C
:104BBC00002B11DA7B68D3F894329B683A685078F2
:104BCC0039693A68D288984739693B68DB881A4654
:104BDC007868FFF799FE6BE03B685A783B6983F87D
:104BEC0000223B68DB88DAB23B6983F80122396921
:104BFC003B68DB881A467868FFF7B4FE58E07B68A0
:104C0C00D3F894329B683A685078002239689847F8
:104C1C004EE03B685B780B2B2ED00B2B38DC002B3B
:104C2C0002D00A2B14D033E07B6893F87432032B38
:104C3C0007D107F10C03022219467868FFF764FECE
:104C4C002EE039687868FFF7E6FC0223FB7527E055
:104C5C007B6893F87432032B07D107F10F03012201
:104C6C0019467868FFF750FE1AE039687868FFF744
:104C7C00D2FC0223FB7513E07B6893F87432032B90
:104C8C000DD039687868FFF7C6FC0223FB7506E087
:104C9C0039687868FFF7BFFC0223FB7500E000BFA2
:104CAC0006E039687868FFF7B6FC0223FB7500BF95
:104CBC00FB7D18461837BD4680BD80B584B000AF6B
:104CCC0078600B46FB707B68D3F89032FB607B6896
:104CDC00D3F89832BB607B68D3F89032002B3AD073
:104CEC00FA78796813469B0013449B000B441C33E1
:104CFC001B68002B29D0FA78796813469B00134463
:104D0C009B000B441C331A68F978B8680B469B005F
:104D1C000B44DB00034438331B68B2FBF3F103FB99
:104D2C0001F3D31A002B10D1FA78796813469B0043
:104D3C0013449B000B441C3300221A60F9780023A7
:104D4C0000227868FEF7ABFC03E0FB680022C3F896
:104D5C001422002300E0022318461037BD4680BD04
:104D6C0080B584B000AF78600B46FB707B68D3F8DD
:104D7C009032FB60FB7819467868FEF7D6FC024649
:104D8C00FB68C3F80C227B68D3F89032002B0DD053
:104D9C007B68D3F89432DB68FA68D2F80402FA68BC
:104DAC0002F5037211469847002300E002231846CF
:104DBC001037BD4680BD80B584B000AF78607B688D
:104DCC00D3F89032FB607B68D3F89432002B15D06B
:104DDC00FB6893F80032FF2B10D07B68D3F8943229
:104DEC009B68FA6892F80002F968FA6892F8012256
:104DFC0092B29847FB68FF2283F8002200231846E2
:104E0C001037BD4680BD000080B483B000AF786021
:104E1C007B6865221A80034B18460C37BD4680BC54
:104E2C00704700BF9C00002080B483B000AF786056
:104E3C007B680A221A80034B18460C37BD4680BC8F
:104E4C00704700BF5800002080B485B000AF786078
:104E5C0039600223FB733B68002B05D07B683A68F2
:104E6C00C3F894220023FB73FB7B18461437BD4612
:104E7C0080BC704780B487B000AFF860B96013464F
:104E8C00FB80FB68D3F890327B617B69BA68C3F80E
:104E9C000822FA887B69C3F81022002318461C37B5
:104EAC00BD4680BC704780B485B000AF7860396077
:104EBC007B68D3F89032FB60FB683A68C3F8042235
:104ECC00002318461437BD4680BC704780B584B0AB
:104EDC0000AF78607B68D3F89032FB607B68D3F8C6
:104EEC009032002B1CD0FB68D3F81432002B15D158
:104EFC00FB680122C3F81422FB68D3F810227B68EC
:104F0C001A63FB68D3F80822FB68D3F810329BB203
:104F1C0081217868FEF7C3FB002302E0012300E047
:104F2C00022318461037BD4680BD80B584B000AF53
:104F3C0078607B68D3F89032FB607B68D3F8903252
:104F4C00002B17D07B681B7C002B09D1FB68D3F896
:104F5C0004224FF4007301217868FEF7C3FB07E0CD
:104F6C00FB68D3F80422402301217868FEF7BAFBD2
:104F7C00002300E0022318461037BD4680BD000018
:104F8C0080B500AF002205490548FFF773FF0549BE
:104F9C000348FFF788FF0023184680BD94110020BA
:104FAC000C0200209409002080B400AF00231846A6
:104FBC00BD4680BC7047000080B483B000AF034690
:104FCC003960FB711346BB80FB79232B4AD801A2B5
:104FDC0052F823F07150000871500008715000080D
:104FEC007150000871500008715000087150000891
:104FFC007150000871500008715000087150000881
:10500C007150000871500008715000087150000870
:10501C007150000871500008715000087150000860
:10502C007150000871500008715000087150000850
:10503C007150000871500008715000087150000840
:10504C007150000871500008715000087150000830
:10505C007150000871500008715000087150000820
:10506C007150000800BF002318460C37BD4680BCA9
:10507C00704700BF80B582B000AF78603960796846
:10508C000548FFF710FF0448FFF74FFF00231846B1
:10509C000837BD4680BD00BF0C02002080B584B02F
:1050AC0000AF78600B467B800023FB730D4BD3F86D
:1050BC009032BB60BB68D3F81432002B01D00123B3
:1050CC000BE07B881A4679680648FFF7D3FE054843
:1050DC00FFF7FCFE0346FB73FB7B18461037BD46FF
:1050EC0080BD00BF0C02002080B400AF00BFBD46E5
:1050FC0080BC7047F8B500AF864B00221A7001E1F6
:10510C000122FF218448FBF7F8F9824B1B78072B0F
:10511C0042D801A252F823F0455100085151000821
:10512C005D51000869510008755100088151000853
:10513C008D51000899510008002201217648FBF797
:10514C00DCF929E0002202217348FBF7D6F923E0B1
:10515C00002204217048FBF7D0F91DE00022082141
:10516C006D48FBF7CAF917E0002210216A48FBF7DB
:10517C00C4F911E0002220216748FBF7BEF90BE0CF
:10518C00002240216448FBF7B8F905E00022802199
:10519C006148FBF7B2F900BF604B00221A70A3E024
:1051AC005E4B1B78DB00DAB25A4B1B781344DAB235
:1051BC005B4B1A705B494FF001024FF00003C1E9E1
:1051CC000023584BD3E9002355490978A1F1200657
:1051DC00C1F1200003FA01F502FA06F6354322FA72
:1051EC0000F0054302FA01F44E4BC3E900454B4B6A
:1051FC001B78062B72D801A252F823F02552000816
:10520C00415200085D52000879520008955200087E
:10521C00B1520008CD5200084FF480713E48FBF7A4
:10522C0065F90346002B02D100F07EF856E000F041
:10523C00DFF953E04FF400713748FBF757F9034699
:10524C00002B02D100F070F848E000F0D1F945E0F5
:10525C004FF480613048FBF749F90346002B02D12B
:10526C0000F062F83AE000F0C3F937E04FF4006167
:10527C002948FBF73BF90346002B02D100F054F808
:10528C002CE000F0B5F929E04FF480512248FBF7EF
:10529C002DF90346002B02D100F046F81EE000F079
:1052AC00A7F91BE04FF400511B48FBF71FF903460D
:1052BC00002B02D100F038F810E000F099F90DE065
:1052CC004FF480411448FBF711F90346002B02D12F
:1052DC0000F02AF801E000F08BF900BF0F4B1B78AF
:1052EC000133DAB20D4B1A700C4B1B78062B7FF680
:1052FC0057AF0120FAF76CFF064B1B780133DAB27B
:10530C00044B1A70034B1B78072B7FF6F9AE00BFCA
:10531C0000BFF8BDF1010020000C0140F20100209B
:10532C00F0010020E80100202DE9B04300AFA74CAC
:10533C00D4E90089A64C30CC08EA040009EA05013E
:10534C00014340F04081A149D1E90045A049D1E990
:10535C00000144EA000245EA01039C49C1E900232B
:10536C009C4B1B78302B63D89B4B1B78012B1DD18E
:10537C00984B1A78994B1A70984B1B78302B05D197
:10538C0064226421012000F0B3F91CE1934B1B78DB
:10539C00002B05D164226421022000F0A9F912E14E
:1053AC0064226421032000F0A3F90CE18B4B1B78E1
:1053BC00302B0CD18A4B1A78864B1B781344DAB2FB
:1053CC00884B1B7800219020FDF7E6FEFBE0834B19
:1053DC001B78002B0CD1844B1A787E4B1B78134412
:1053EC00DAB2804B1B7801219020FDF7D5FEEAE064
:1053FC00784B1A78794B1B789A420CD2784B1A78E6
:10540C00744B1B781344DAB2764B1B780021902036
:10541C00FDF7C2FED7E0744B1A786E4B1B78134421
:10542C00DAB2704B1B7801219020FDF7B5FECAE073
:10543C00684B1B78312B03D16C4B01221A70C2E0E4
:10544C00644B1B78322B03D1634B01221A70BAE0E8
:10545C00604B1B78332B37D1644B1B78012B19D144
:10546C00614B1B780C33DAB25F4B1A705E4B1B78B6
:10547C00482B09D95C4B48221A7064224FF4FA71FC
:10548C00012000F035F99EE064226421012000F037
:10549C002FF998E0524B1B780C33DAB2504B1A7040
:1054AC004F4B1B78482B09D94D4B48221A7064225C
:1054BC004FF4FA71012000F01BF984E0642264219E
:1054CC00012000F015F97EE0424B1B78342B37D1CC
:1054DC00464B1B78012B19D1434B1B780C3BDAB292
:1054EC00414B1A70404B1B78172B09D83E4B182296
:1054FC001A7064224FF4FA71012000F0F9F862E09E
:10550C0064226421012000F0F3F85CE0344B1B783A
:10551C000C3BDAB2324B1A70314B1B78172B09D873
:10552C002F4B18221A7064224FF4FA71012000F0EC
:10553C00DFF848E064226421012000F0D9F842E051
:10554C00244B1B78352B20D1264B1B787F2B02D17B
:10555C00244B80221A70234B1B78083BDAB2214B68
:10556C001A70204B1B783F2B09D81E4B40221A7007
:10557C0064224FF4FA71012000F0BAF823E064229F
:10558C006421012000F0B4F81DE0124B1B78362B7F
:10559C0019D1144B1B780833DAB2124B1A70114B19
:1055AC001B785BB2002B09DA0E4B7F221A70642237
:1055BC004FF4FA71012000F09BF804E0642264219E
:1055CC00012000F095F800BFBDE8B083E001002099
:1055DC00E8010020F0010020F3010020160100205A
:1055EC00140100201701002015010020F4010020F7
:1055FC002DE9F84F00AF364ED6E900AB354ED6E963
:10560C0000890AEA08040BEA09052C435DD0314CE9
:10561C0030CCE243EB432E4C30CC02EA040003EADC
:10562C0005012B4BC3E900012B4B1B78302B3DD8CC
:10563C002A4B1B78302B0BD1294B1A78264B1B7815
:10564C001344DAB2002300218020FDF7A5FD3CE0D5
:10565C00224B1B78002B0BD1224B1A781E4B1B783C
:10566C001344DAB2002301218020FDF795FD2CE0D4
:10567C00194B1A78194B1B789A420BD2184B1A7883
:10568C00154B1B781344DAB2002300218020FDF760
:10569C0083FD1AE0134B1A780F4B1B781344DAB2C4
:1056AC00002301218020FDF777FD0EE00A4B1B78CB
:1056BC00312B03D10C4B00221A7006E0064B1B78E1
:1056CC00322B02D1094B00221A7000BFBDE8F88FB3
:1056DC00E0010020E8010020F0010020160100206C
:1056EC001401002015010020F4010020F30100201A
:1056FC0080B584B000AF0346FB710B46BB801346EC
:10570C007B800023FB7312E004210D48FCF79EFC08
:10571C00BB881846FAF75CFD04210948FCF704FD28
:10572C007B881846FAF754FDFB7B0133FB73FA7B3D
:10573C00FB799A42E8D300BF00BF1037BD4680BD4D
:10574C009419002070B588B0002404940594069434
:10575C0007941C4B9A6942F020029A619A6902F0F4
:10576C0020020192019A9A6942F004029A619A69A4
:10577C0002F004020292029A9A6942F008029A61BB
:10578C009B6903F008030393039B0F4D0122FF2138
:10579C002846FAF7B2FEFF230493012605960694D9
:1057AC000223079304A92846FAF790FD4FF4FE4311
:1057BC0004930594069604A92846FAF787FD08B0C9
:1057CC0070BD00BF00100240000C014008B5074836
:1057DC00074B03600823436002238360002383612B
:1057EC00C3610362FAF71AFF08BD00BFA8040020CA
:1057FC00005C004030B58FB000240A940B940C94DC
:10580C000D940894099401940294039404940594BF
:10581C0006940794174D184B2B606C60AC6044F2E7
:10582C005063EB602C61AC612846FCF793FA4FF4A3
:10583C0080530A930AA92846FCF789FB2846FCF7F3
:10584C00B5FA0894099408A92846FCF7AFFC602324
:10585C00019342F2283302930394059404220DEB36
:10586C0002012846FCF700FB284600F08DF80FB02B
:10587C0030BD00BF941900200004004030B595B035
:10588C0000240D940F941094059406940794089496
:10589C000994019402940394049401220A924FF403
:1058AC0080330B930C940E920225119512934FF4A6
:1058BC00E01313930AA8FBF7E3FD0F23059306955A
:1058CC0007944FF4806308930994294605A8FCF7C4
:1058DC0015F810230193049401A8FCF7C5F815B032
:1058EC0030BD08B5FAF750FCFFF7C8FFFFF7FCFB1B
:1058FC00FFF728FFFFF76AFFFFF77CFF002202216A
:10590C001420FAF78BFC1420FAF7BCFCFDF7B0FC62
:10591C00FFF7F0FBFCE7704782B00E4B9A6942F040
:10592C0001029A619A6902F001020092009ADA6906
:10593C0042F08052DA61DB6903F080530193019BE2
:10594C00054A536823F0E06343F00073536002B0E0
:10595C00704700BF00100240000001400268094B74
:10596C009A4200D0704782B003F50333DA6942F0F3
:10597C000202DA61DB6903F002030193019B02B0BE
:10598C00704700BF0004004000B587B000230293AD
:10599C0003930493059302680D4B9A4202D007B00F
:1059AC005DF804FB03F503339A6942F004029A6133
:1059BC009B6903F004030193019B80230293022350
:1059CC000393059302A90348FAF780FCE7E700BFAD
:1059DC0000040040000801400268094B9A4200D0C4
:1059EC00704782B003F5DA33DA6942F40002DA6107
:1059FC00DB6903F400030193019B02B0704700BF05
:105A0C00005C00407047FEE7FEE7FEE7FEE77047EC
:105A1C007047704708B5FAF7C9FB08BD08B50248CE
:105A2C00FBF7DFFA08BD00BFA804002008B5034649
:105A3C000B4A126842B10A4A106803446A46934200
:105A4C0006D8074A136008BD054A06491160F2E7FB
:105A5C0000F056F80C2303604FF0FF30F3E700BF63
:105A6C00F8010020F01900200F4B1A6842F00102D7
:105A7C001A6059680D4A0A405A601A6822F08472FA
:105A8C0022F480321A601A6822F480221A605A6852
:105A9C0022F4FE025A604FF41F029A60044B4FF03E
:105AAC0000629A60704700BF001002400000FFF8CF
:105ABC0000ED00E0002103E00B4B5B584350043138
:105ACC000A480B4B42189A42F6D30A4A02E00023CA
